{
  "_format": "hh-sol-artifact-1",
  "contractName": "Sudoku",
  "sourceName": "contracts/Sudoku.sol",
  "abi": [
    {
      "inputs": [
        {
          "internalType": "address",
          "name": "_verifierAddr",
          "type": "address"
        }
      ],
      "stateMutability": "nonpayable",
      "type": "constructor"
    },
    {
      "inputs": [
        {
          "internalType": "string",
          "name": "stringTime",
          "type": "string"
        }
      ],
      "name": "generateSudokuBoard",
      "outputs": [
        {
          "internalType": "uint8[9][9]",
          "name": "",
          "type": "uint8[9][9]"
        }
      ],
      "stateMutability": "view",
      "type": "function"
    },
    {
      "inputs": [],
      "name": "verifierAddr",
      "outputs": [
        {
          "internalType": "address",
          "name": "",
          "type": "address"
        }
      ],
      "stateMutability": "view",
      "type": "function"
    },
    {
      "inputs": [
        {
          "internalType": "uint256[2]",
          "name": "a",
          "type": "uint256[2]"
        },
        {
          "internalType": "uint256[2][2]",
          "name": "b",
          "type": "uint256[2][2]"
        },
        {
          "internalType": "uint256[2]",
          "name": "c",
          "type": "uint256[2]"
        },
        {
          "internalType": "uint256[81]",
          "name": "input",
          "type": "uint256[81]"
        }
      ],
      "name": "verifyProof",
      "outputs": [
        {
          "internalType": "bool",
          "name": "",
          "type": "bool"
        }
      ],
      "stateMutability": "view",
      "type": "function"
    },
    {
      "inputs": [
        {
          "internalType": "uint256[2]",
          "name": "a",
          "type": "uint256[2]"
        },
        {
          "internalType": "uint256[2][2]",
          "name": "b",
          "type": "uint256[2][2]"
        },
        {
          "internalType": "uint256[2]",
          "name": "c",
          "type": "uint256[2]"
        },
        {
          "internalType": "uint256[81]",
          "name": "input",
          "type": "uint256[81]"
        }
      ],
      "name": "verifySudoku",
      "outputs": [
        {
          "internalType": "bool",
          "name": "",
          "type": "bool"
        }
      ],
      "stateMutability": "view",
      "type": "function"
    }
  ],
  "bytecode": "0x60806040526040518060600160405280604051806101200160405280604051806101200160405280600160ff168152602001600260ff168152602001600760ff168152602001600560ff168152602001600860ff168152602001600460ff168152602001600660ff168152602001600960ff168152602001600360ff168152508152602001604051806101200160405280600860ff168152602001600560ff168152602001600660ff168152602001600360ff168152602001600760ff168152602001600960ff168152602001600160ff168152602001600260ff168152602001600460ff168152508152602001604051806101200160405280600360ff168152602001600460ff168152602001600960ff168152602001600660ff168152602001600260ff168152602001600160ff168152602001600860ff168152602001600760ff168152602001600560ff168152508152602001604051806101200160405280600460ff168152602001600760ff168152602001600160ff168152602001600960ff168152602001600560ff168152602001600860ff168152602001600260ff168152602001600360ff168152602001600660ff168152508152602001604051806101200160405280600260ff168152602001600660ff168152602001600860ff168152602001600760ff168152602001600160ff168152602001600360ff168152602001600560ff168152602001600460ff168152602001600960ff168152508152602001604051806101200160405280600960ff168152602001600360ff168152602001600560ff168152602001600460ff168152602001600660ff168152602001600260ff168152602001600760ff168152602001600160ff168152602001600860ff168152508152602001604051806101200160405280600560ff168152602001600860ff168152602001600360ff168152602001600260ff168152602001600960ff168152602001600760ff168152602001600460ff168152602001600660ff168152602001600160ff168152508152602001604051806101200160405280600760ff168152602001600160ff168152602001600460ff168152602001600860ff168152602001600360ff168152602001600660ff168152602001600960ff168152602001600560ff168152602001600260ff168152508152602001604051806101200160405280600660ff168152602001600960ff168152602001600260ff168152602001600160ff168152602001600460ff168152602001600560ff168152602001600360ff168152602001600060ff168152602001600760ff168152508152508152602001604051806101200160405280604051806101200160405280600060ff168152602001600260ff168152602001600760ff168152602001600560ff168152602001600060ff168152602001600460ff168152602001600060ff168152602001600060ff168152602001600060ff168152508152602001604051806101200160405280600060ff168152602001600060ff168152602001600060ff168152602001600360ff168152602001600760ff168152602001600060ff168152602001600060ff168152602001600060ff168152602001600460ff168152508152602001604051806101200160405280600360ff168152602001600060ff168152602001600060ff168152602001600060ff168152602001600060ff168152602001600060ff168152602001600860ff168152602001600060ff168152602001600060ff168152508152602001604051806101200160405280600460ff168152602001600760ff168152602001600060ff168152602001600960ff168152602001600560ff168152602001600860ff168152602001600060ff168152602001600360ff168152602001600660ff168152508152602001604051806101200160405280600260ff168152602001600660ff168152602001600860ff168152602001600760ff168152602001600160ff168152602001600060ff168152602001600060ff168152602001600460ff168152602001600960ff168152508152602001604051806101200160405280600060ff168152602001600060ff168152602001600060ff168152602001600060ff168152602001600060ff168152602001600260ff168152602001600060ff168152602001600160ff168152602001600860ff168152508152602001604051806101200160405280600060ff168152602001600860ff168152602001600360ff168152602001600060ff168152602001600960ff168152602001600060ff168152602001600460ff168152602001600060ff168152602001600060ff168152508152602001604051806101200160405280600760ff168152602001600160ff168152602001600060ff168152602001600060ff168152602001600060ff168152602001600060ff168152602001600960ff168152602001600060ff168152602001600260ff168152508152602001604051806101200160405280600060ff168152602001600060ff168152602001600060ff168152602001600060ff168152602001600060ff168152602001600560ff168152602001600060ff168152602001600060ff168152602001600760ff168152508152508152602001604051806101200160405280604051806101200160405280600060ff168152602001600060ff168152602001600060ff168152602001600060ff168152602001600060ff168152602001600660ff168152602001600060ff168152602001600060ff168152602001600060ff168152508152602001604051806101200160405280600060ff168152602001600060ff168152602001600760ff168152602001600260ff168152602001600060ff168152602001600060ff168152602001600860ff168152602001600060ff168152602001600060ff168152508152602001604051806101200160405280600960ff168152602001600060ff168152602001600660ff168152602001600860ff168152602001600060ff168152602001600060ff168152602001600060ff168152602001600160ff168152602001600060ff168152508152602001604051806101200160405280600360ff168152602001600060ff168152602001600060ff168152602001600760ff168152602001600060ff168152602001600060ff168152602001600060ff168152602001600260ff168152602001600960ff168152508152602001604051806101200160405280600060ff168152602001600060ff168152602001600060ff168152602001600060ff168152602001600060ff168152602001600060ff168152602001600060ff168152602001600060ff168152602001600060ff168152508152602001604051806101200160405280600460ff168152602001600060ff168152602001600060ff168152602001600560ff168152602001600060ff168152602001600060ff168152602001600060ff168152602001600760ff168152602001600060ff168152508152602001604051806101200160405280600660ff168152602001600560ff168152602001600060ff168152602001600160ff168152602001600060ff168152602001600060ff168152602001600060ff168152602001600060ff168152602001600060ff168152508152602001604051806101200160405280600860ff168152602001600060ff168152602001600160ff168152602001600060ff168152602001600560ff168152602001600060ff168152602001600360ff168152602001600060ff168152602001600060ff168152508152602001604051806101200160405280600760ff168152602001600960ff168152602001600260ff168152602001600060ff168152602001600060ff168152602001600060ff168152602001600060ff168152602001600060ff168152602001600460ff168152508152508152506001906003610b5d929190610bd2565b50348015610b6a57600080fd5b50604051611feb380380611feb8339818101604052810190610b8c9190610ded565b806000806101000a81548173ffffffffffffffffffffffffffffffffffffffff021916908373ffffffffffffffffffffffffffffffffffffffff16021790555050610e1a565b8260036009028101928215610c12579160200282015b82811115610c1157825182906009610c01929190610c23565b5091602001919060090190610be8565b5b509050610c1f9190610c71565b5090565b8260098101928215610c60579160200282015b82811115610c5f57825182906009610c4f929190610c95565b5091602001919060010190610c36565b5b509050610c6d9190610d2f565b5090565b5b80821115610c915760008181610c889190610d53565b50600901610c72565b5090565b826009601f01602090048101928215610d1e5791602002820160005b83821115610cef57835183826101000a81548160ff021916908360ff1602179055509260200192600101602081600001049283019260010302610cb1565b8015610d1c5782816101000a81549060ff0219169055600101602081600001049283019260010302610cef565b505b509050610d2b9190610d66565b5090565b5b80821115610d4f5760008181610d469190610d83565b50600101610d30565b5090565b508060090190610d639190610d2f565b50565b5b80821115610d7f576000816000905550600101610d67565b5090565b5060009055565b600080fd5b600073ffffffffffffffffffffffffffffffffffffffff82169050919050565b6000610dba82610d8f565b9050919050565b610dca81610daf565b8114610dd557600080fd5b50565b600081519050610de781610dc1565b92915050565b600060208284031215610e0357610e02610d8a565b5b6000610e1184828501610dd8565b91505092915050565b6111c280610e296000396000f3fe608060405234801561001057600080fd5b506004361061004c5760003560e01c80633e7c838f14610051578063663ea2e214610081578063c54d8fd31461009f578063e235ad2a146100cf575b600080fd5b61006b60048036038101906100669190610814565b6100ff565b6040516100789190610898565b60405180910390f35b6100896101a0565b60405161009691906108f4565b60405180910390f35b6100b960048036038101906100b491906109c4565b6101c4565b6040516100c69190610b62565b60405180910390f35b6100e960048036038101906100e49190610814565b6101dc565b6040516100f69190610898565b60405180910390f35b600061010a82610289565b610149576040517f08c379a000000000000000000000000000000000000000000000000000000000815260040161014090610bdb565b60405180910390fd5b610155858585856101dc565b610194576040517f08c379a000000000000000000000000000000000000000000000000000000000815260040161018b90610c47565b60405180910390fd5b60019050949350505050565b60008054906101000a900473ffffffffffffffffffffffffffffffffffffffff1681565b6101cc6104d0565b6101d5826103d1565b9050919050565b60008060009054906101000a900473ffffffffffffffffffffffffffffffffffffffff1673ffffffffffffffffffffffffffffffffffffffff1663e235ad2a868686866040518563ffffffff1660e01b815260040161023e9493929190610e94565b602060405180830381865afa15801561025b573d6000803e3d6000fd5b505050506040513d601f19601f8201168201806040525081019061027f9190610f07565b9050949350505050565b6000806001905060005b60038110156103c6576001915060005b600182600381106102b7576102b6610f34565b5b505060098110156103a45760005b600183600381106102d9576102d8610f34565b5b6009020182600981106102ef576102ee610f34565b5b50506009811015610398576001836003811061030e5761030d610f34565b5b60090201826009811061032457610323610f34565b5b01816009811061033757610336610f34565b5b602091828204019190069054906101000a900460ff1660ff16868284600961035f9190610f92565b6103699190610fd4565b6051811061037a57610379610f34565b5b60200201511461038d5760009350610398565b8060010190506102c5565b508060010190506102a3565b5060011515821515036103bb5781925050506103cc565b806001019050610293565b50809150505b919050565b6103d96104d0565b60006003444233866040516020016103f494939291906110e2565b6040516020818303038152906040528051906020012060001c610417919061115b565b90506001816003811061042d5761042c610f34565b5b60090201600980602002604051908101604052809291906000905b828210156104c4578382016009806020026040519081016040528092919082600980156104b0576020028201916000905b82829054906101000a900460ff1660ff16815260200190600101906020826000010492830192600103820291508084116104795790505b505050505081526020019060010190610448565b50505050915050919050565b6040518061012001604052806009905b6104e86104fe565b8152602001906001900390816104e05790505090565b604051806101200160405280600990602082028036833780820191505090505090565b6000604051905090565b600080fd5b600080fd5b600080fd5b6000601f19601f8301169050919050565b7f4e487b7100000000000000000000000000000000000000000000000000000000600052604160045260246000fd5b6105838261053a565b810181811067ffffffffffffffff821117156105a2576105a161054b565b5b80604052505050565b60006105b5610521565b90506105c1828261057a565b919050565b600067ffffffffffffffff8211156105e1576105e061054b565b5b602082029050919050565b600080fd5b6000819050919050565b610604816105f1565b811461060f57600080fd5b50565b600081359050610621816105fb565b92915050565b600061063a610635846105c6565b6105ab565b90508060208402830185811115610654576106536105ec565b5b835b8181101561067d57806106698882610612565b845260208401935050602081019050610656565b5050509392505050565b600082601f83011261069c5761069b610535565b5b60026106a9848285610627565b91505092915050565b600067ffffffffffffffff8211156106cd576106cc61054b565b5b602082029050919050565b60006106eb6106e6846106b2565b6105ab565b90508060408402830185811115610705576107046105ec565b5b835b8181101561072e578061071a8882610687565b845260208401935050604081019050610707565b5050509392505050565b600082601f83011261074d5761074c610535565b5b600261075a8482856106d8565b91505092915050565b600067ffffffffffffffff82111561077e5761077d61054b565b5b602082029050919050565b600061079c61079784610763565b6105ab565b905080602084028301858111156107b6576107b56105ec565b5b835b818110156107df57806107cb8882610612565b8452602084019350506020810190506107b8565b5050509392505050565b600082601f8301126107fe576107fd610535565b5b605161080b848285610789565b91505092915050565b600080600080610b20858703121561082f5761082e61052b565b5b600061083d87828801610687565b945050604061084e87828801610738565b93505060c061085f87828801610687565b925050610100610871878288016107e9565b91505092959194509250565b60008115159050919050565b6108928161087d565b82525050565b60006020820190506108ad6000830184610889565b92915050565b600073ffffffffffffffffffffffffffffffffffffffff82169050919050565b60006108de826108b3565b9050919050565b6108ee816108d3565b82525050565b600060208201905061090960008301846108e5565b92915050565b600080fd5b600067ffffffffffffffff82111561092f5761092e61054b565b5b6109388261053a565b9050602081019050919050565b82818337600083830152505050565b600061096761096284610914565b6105ab565b9050828152602081018484840111156109835761098261090f565b5b61098e848285610945565b509392505050565b600082601f8301126109ab576109aa610535565b5b81356109bb848260208601610954565b91505092915050565b6000602082840312156109da576109d961052b565b5b600082013567ffffffffffffffff8111156109f8576109f7610530565b5b610a0484828501610996565b91505092915050565b600060099050919050565b600081905092915050565b6000819050919050565b600060099050919050565b600081905092915050565b6000819050919050565b600060ff82169050919050565b610a6381610a4d565b82525050565b6000610a758383610a5a565b60208301905092915050565b6000602082019050919050565b610a9781610a2d565b610aa18184610a38565b9250610aac82610a43565b8060005b83811015610add578151610ac48782610a69565b9650610acf83610a81565b925050600181019050610ab0565b505050505050565b6000610af18383610a8e565b6101208301905092915050565b6000602082019050919050565b610b1481610a0d565b610b1e8184610a18565b9250610b2982610a23565b8060005b83811015610b5a578151610b418782610ae5565b9650610b4c83610afe565b925050600181019050610b2d565b505050505050565b6000610a2082019050610b786000830184610b0b565b92915050565b600082825260208201905092915050565b7f5468697320626f61726420646f6573206e6f7420657869737400000000000000600082015250565b6000610bc5601983610b7e565b9150610bd082610b8f565b602082019050919050565b60006020820190508181036000830152610bf481610bb8565b9050919050565b7f46696c65642070726f6f6620636865636b000000000000000000000000000000600082015250565b6000610c31601183610b7e565b9150610c3c82610bfb565b602082019050919050565b60006020820190508181036000830152610c6081610c24565b9050919050565b600060029050919050565b600081905092915050565b6000819050919050565b610c90816105f1565b82525050565b6000610ca28383610c87565b60208301905092915050565b6000602082019050919050565b610cc481610c67565b610cce8184610c72565b9250610cd982610c7d565b8060005b83811015610d0a578151610cf18782610c96565b9650610cfc83610cae565b925050600181019050610cdd565b505050505050565b600060029050919050565b600081905092915050565b6000819050919050565b600081905092915050565b610d4681610c67565b610d508184610d32565b9250610d5b82610c7d565b8060005b83811015610d8c578151610d738782610c96565b9650610d7e83610cae565b925050600181019050610d5f565b505050505050565b6000610da08383610d3d565b60408301905092915050565b6000602082019050919050565b610dc281610d12565b610dcc8184610d1d565b9250610dd782610d28565b8060005b83811015610e08578151610def8782610d94565b9650610dfa83610dac565b925050600181019050610ddb565b505050505050565b600060519050919050565b600081905092915050565b6000819050919050565b6000602082019050919050565b610e4681610e10565b610e508184610e1b565b9250610e5b82610e26565b8060005b83811015610e8c578151610e738782610c96565b9650610e7e83610e30565b925050600181019050610e5f565b505050505050565b6000610b2082019050610eaa6000830187610cbb565b610eb76040830186610db9565b610ec460c0830185610cbb565b610ed2610100830184610e3d565b95945050505050565b610ee48161087d565b8114610eef57600080fd5b50565b600081519050610f0181610edb565b92915050565b600060208284031215610f1d57610f1c61052b565b5b6000610f2b84828501610ef2565b91505092915050565b7f4e487b7100000000000000000000000000000000000000000000000000000000600052603260045260246000fd5b7f4e487b7100000000000000000000000000000000000000000000000000000000600052601160045260246000fd5b6000610f9d826105f1565b9150610fa8836105f1565b9250828202610fb6816105f1565b91508282048414831517610fcd57610fcc610f63565b5b5092915050565b6000610fdf826105f1565b9150610fea836105f1565b925082820190508082111561100257611001610f63565b5b92915050565b6000819050919050565b61102361101e826105f1565b611008565b82525050565b60008160601b9050919050565b600061104182611029565b9050919050565b600061105382611036565b9050919050565b61106b611066826108d3565b611048565b82525050565b600081519050919050565b600081905092915050565b60005b838110156110a557808201518184015260208101905061108a565b60008484015250505050565b60006110bc82611071565b6110c6818561107c565b93506110d6818560208601611087565b80840191505092915050565b60006110ee8287611012565b6020820191506110fe8286611012565b60208201915061110e828561105a565b60148201915061111e82846110b1565b915081905095945050505050565b7f4e487b7100000000000000000000000000000000000000000000000000000000600052601260045260246000fd5b6000611166826105f1565b9150611171836105f1565b9250826111815761118061112c565b5b82820690509291505056fea2646970667358221220749b874b60a263e21967fe27614db93c2ec1c9d4590a5719d34126134f494a5d64736f6c634300081c0033",
  "linkReferences": {},
  "deployedLinkReferences": {}
}