{
    "_format": "hh-sol-artifact-1",
    "contractName": "Sudoku",
    "sourceName": "contracts/Sudoku.sol",
    "abi": [
        {
            "inputs": [
                {
                    "internalType": "address",
                    "name": "_verifierAddr",
                    "type": "address"
                }
            ],
            "stateMutability": "nonpayable",
            "type": "constructor"
        },
        {
            "inputs": [
                {
                    "internalType": "string",
                    "name": "stringTime",
                    "type": "string"
                }
            ],
            "name": "generateSudokuBoard",
            "outputs": [
                {
                    "internalType": "uint8[9][9]",
                    "name": "",
                    "type": "uint8[9][9]"
                }
            ],
            "stateMutability": "view",
            "type": "function"
        },
        {
            "inputs": [],
            "name": "verifierAddr",
            "outputs": [
                {
                    "internalType": "address",
                    "name": "",
                    "type": "address"
                }
            ],
            "stateMutability": "view",
            "type": "function"
        },
        {
            "inputs": [
                {
                    "internalType": "uint256[8]",
                    "name": "points",
                    "type": "uint256[8]"
                },
                {
                    "internalType": "uint256[81]",
                    "name": "input",
                    "type": "uint256[81]"
                }
            ],
            "name": "verifySudoku",
            "outputs": [
                {
                    "internalType": "bool",
                    "name": "",
                    "type": "bool"
                }
            ],
            "stateMutability": "view",
            "type": "function"
        }
    ],
    "bytecode": "0x6001610200818152600261022081905260076102408190526005610260819052600861028081905260046102a081905260066102c081905260096102e0819052600361030081905260e09889526103208581526103408790526103608490526103808290526103a08890526103c08390526103e08b9052610400899052610420859052610100526104408181526104608590526104808390526104a08490526104c08990526104e08b9052610500869052610520889052610540879052610120526105608481526105808890526105a08b90526105c08390526105e0879052610600869052610620899052610640829052610660849052610140526106808881526106a08490526106c08690526106e08890526107008b9052610720829052610740879052610760859052610780839052610160526107a08281526107c08290526107e08790526108008590526108208490526108408990526108608890526108808b90526108a0869052610180526108c08681526108e08690526109008290526109208990526109408390526109608890526109808590526109a08490526109c08b90526101a0526109e0878152610a008b9052610a20859052610a40869052610a60829052610a80849052610aa0839052610ac0879052610ae08990526101c052610b00838152610b20839052610b40899052610b608b9052610b80859052610ba0879052610bc08290526000610be0819052610c008990526101e0919091526080998a52610d40818152610d608a9052610d80899052610da0889052610dc0829052610de0869052610e00829052610e20829052610e40829052610c20908152610e60828152610e80839052610ea0839052610ec0849052610ee08a9052610f00839052610f20839052610f40839052610f60879052610c4052610f80838152610fa0839052610fc0839052610fe0839052611000839052611020839052611040889052611060839052611080839052610c60526110a08681526110c08a90526110e08390526111008590526111208990526111408890526111608390526111808490526111a0869052610c80526111c08a81526111e08690526112008890526112208a90526112408d90526112608390526112808390526112a08790526112c0859052610ca0526112e08281526113008390526113208390526113408390526113608390526113808b90526113a08390526113c08d90526113e0889052610cc0526114008281526114208890526114408490526114608390526114808590526114a08390526114c08790526114e0839052611500839052610ce0526115208981526115408d90526115608390526115808390526115a08390526115c08390526115e08590526116008390526116208b9052610d00526116408281526116608390526116808390526116a08390526116c08390526116e08990526117008390526117208390526117408a9052610d205260a0526118808181526118a08290526118c08290526118e08290526119008290526119208590526119408290526119608290526119808290526117609081526119a08281526119c08390526119e08a9052611a008b9052611a20839052611a40839052611a60889052611a80839052611aa083905261178052611ac0848152611ae0839052611b00869052611b20889052611b40839052611b60839052611b80839052611ba08d9052611bc08390526117a052611be0838152611c00839052611c20839052611c408a9052611c60839052611c80839052611ca0839052611cc08b9052611ce08590526117c052611d00828152611d20839052611d40839052611d60839052611d80839052611da0839052611dc0839052611de0839052611e008390526117e052611e20868152611e40839052611e60839052611e80899052611ea0839052611ec0839052611ee0839052611f008a9052611f2083905261180052611f40948552611f60889052611f80829052611fa08c9052611fc0829052611fe0829052612000829052612020829052612040829052611820949094526120609586526120808190526120a08b90526120c08190526120e096909652612100869052612120819052612140869052612160869052611840949094526122a06040526121809586526121a0526121c0959095526121e083905261220083905261222083905261224083905261226092909252612280919091526118609190915260c0919091526106639291906106b4565b5034801561067057600080fd5b5060405161109638038061109683398101604081905261068f9161082b565b600080546001600160a01b0319166001600160a01b039290921691909117905561085b565b601b830191839082156106ef579160200282015b828111156106ef5782516106df90839060096106ff565b50916020019190600901906106c8565b506106fb929150610745565b5090565b8260098101928215610739579160200282015b828111156107395782516107299083906009610762565b5091602001919060010190610712565b506106fb9291506107f1565b808211156106fb5760006107598282610805565b50600901610745565b6001830191839082156107e55791602002820160005b838211156107b657835183826101000a81548160ff021916908360ff1602179055509260200192600101602081600001049283019260010302610778565b80156107e35782816101000a81549060ff02191690556001016020816000010492830192600103026107b6565b505b506106fb929150610817565b808211156106fb57600081556001016107f1565b506108149060098101906107f1565b50565b808211156106fb57600081556001016107f1565b60006020828403121561083d57600080fd5b81516001600160a01b038116811461085457600080fd5b9392505050565b61082c8061086a6000396000f3fe608060405234801561001057600080fd5b50600436106100415760003560e01c8063663ea2e214610046578063c54d8fd314610076578063ef7eee4214610096575b600080fd5b600054610059906001600160a01b031681565b6040516001600160a01b0390911681526020015b60405180910390f35b6100896100843660046104e8565b6100b9565b60405161006d91906105a1565b6100a96100a43660046105ff565b6100d0565b604051901515815260200161006d565b6100c1610485565b6100ca8261027c565b92915050565b600061010482605180602002604051908101604052809291908260516020028082843760009201919091525061035f915050565b6101555760405162461bcd60e51b815260206004820152601960248201527f5468697320626f61726420646f6573206e6f742065786973740000000000000060448201526064015b60405180910390fd5b6000546040805180820182528535815260208087013581830152825160808082018552888501358286019081526060808b01359084015282528451808601865290890135815260a089013581840152818301528351808501855260c0890135815260e089013592810192909252925163711ad69560e11b81526001600160a01b039094169363e235ad2a936101f193929091889060040161068d565b602060405180830381865afa15801561020e573d6000803e3d6000fd5b505050506040513d601f19601f820116820180604052508101906102329190610712565b6102735760405162461bcd60e51b81526020600482015260126024820152714661696c65642070726f6f6620636865636b60701b604482015260640161014c565b50600192915050565b610284610485565b600060034442338660405160200161029f949392919061073b565b6040516020818303038152906040528051906020012060001c6102c29190610794565b9050600181600381106102d7576102d7610644565b60408051610120810190915291600991820201906000835b8282101561035357604080516101208101918290529085840190600990826000855b825461010083900a900460ff168152602060019283018181049485019490930390920291018084116103115790505050505050815260200190600101906102ef565b50505050915050919050565b60006001815b600381101561047e576001915060005b6001826003811061038857610388610644565b505060098110156104645760005b600183600381106103a9576103a9610644565b6009020182600981106103be576103be610644565b5050600981101561045b57600183600381106103dc576103dc610644565b6009020182600981106103f1576103f1610644565b01816009811061040357610403610644565b602081049091015460ff601f9092166101000a90041686826104268560096107cc565b61043091906107e3565b6051811061044057610440610644565b602002015114610453576000935061045b565b600101610396565b50600101610375565b50811515600103610476575092915050565b600101610365565b5092915050565b6040518061012001604052806009905b61049d6104b3565b8152602001906001900390816104955790505090565b6040518061012001604052806009906020820280368337509192915050565b634e487b7160e01b600052604160045260246000fd5b6000602082840312156104fa57600080fd5b813567ffffffffffffffff81111561051157600080fd5b8201601f8101841361052257600080fd5b803567ffffffffffffffff81111561053c5761053c6104d2565b604051601f8201601f19908116603f0116810167ffffffffffffffff8111828210171561056b5761056b6104d2565b60405281815282820160200186101561058357600080fd5b81602084016020830137600091810160200191909152949350505050565b610a208101818360005b60098110156105f65781518360005b60098110156105dc57825160ff168252602092830192909101906001016105ba565b5050506101209290920191602091909101906001016105ab565b50505092915050565b600080610b20838503121561061357600080fd5b61010083018481111561062557600080fd5b83925084610b208501111561063957600080fd5b809150509250929050565b634e487b7160e01b600052603260045260246000fd5b8060005b600281101561067d57815184526020938401939091019060010161065e565b50505050565b610a208183375050565b610b20810161069c828761065a565b604082018560005b60028110156106eb5781518360005b60028110156106d25782518252602092830192909101906001016106b3565b50505060409290920191602091909101906001016106a4565b5050506106fb60c083018561065a565b610709610100830184610683565b95945050505050565b60006020828403121561072457600080fd5b8151801515811461073457600080fd5b9392505050565b8481528360208201526bffffffffffffffffffffffff198360601b1660408201526000825160005b818110156107805760208186018101516054868401015201610763565b506000920160540191825250949350505050565b6000826107b157634e487b7160e01b600052601260045260246000fd5b500690565b634e487b7160e01b600052601160045260246000fd5b80820281158282048414176100ca576100ca6107b6565b808201808211156100ca576100ca6107b656fea2646970667358221220d1685dcabd2365cf718ea958b8d8453f6f048584228def1df862fa0e29006f5764736f6c634300081c0033",
    "linkReferences": {},
    "deployedLinkReferences": {}
}